:0A0000000200C074017AB30013225D
:10000B0002006D7EA300134CAA780475C0FF22BEBC
:10001B00A001780475C00022BEA002781C7E73007C
:10002B00080A2709B2001A64FFF5C07CB7047AB33B
:10003B000008BEB008402A8023BEA00378237EA30D
:10004B0000080A3A09B3000B64FFF5C07CBA047AC6
:10005B00B300087E730008BE70084005E47AB30055
:10006B000822CAF8CA59CA1BC0D17E3700140B34F8
:10007B007A3700147EF300134CFF6827BEF001782B
:10008B00028020BEF003780C7E370022BE370014AE
:10009B003802800FBEF00278137E370009BE37009E
:1000AB001438096D337A37001412000ED0D1DA1BD5
:1000BB00DA59DAF8327584017E44041FE47A49B0C8
:1000CB001B4478F97EF800237E0400FF7E1401E9BF
:1000DB000B0A405D44681A692000020B0E0B44802A
:1000EB000A7E0BB07A29B00B240B0C1B4478F280E0
:1000FB00DF0201A3A2A0E433780C7EB30016B40197
:10010B0005E47AB30016A2A0E433B4010F7EB3006A
:10011B0016700974017AB3001602000322A2A1E43F
:10012B0033780C7EB30017B40105E47AB30017A241
:10013B00A1E433B4010F7EB30017700974017AB3D5
:10014B0000170201E322A2A2E433780C7EB300185D
:10015B00B40105E47AB30018A2A2E433B4010F7E14
:10016B00B30018700974017AB300180201D522A2EA
:10017B00A3E433780C7EB30019B40105E47AB30021
:10018B0019A2A3E433B4010F7EB3001970097401F3
:10019B007AB300190201DC2275B4FF75B3007596B2
:1001AB00007595001201C01200FF120128120151B7
:1001BB0012017A80F2438E805389F0758A40758CD8
:1001CB00A2C28DD28CD2A9D2AF2274027AB3001301
:1001DB002274037AB3001322E47AB30013220001D2
:1001EB000008000002000903E80008000B010204EC
:1001FB0008102040800001001300000200140000D2
:10020B000001001601000100170100010018010098
:10021B00010019010008001A0103070F1F3F7FFFA0
:08022B000002002201F40000B2
:00000001FF
