:1000000002016874017AB3002D2222020092E47E7C
:1000100034FED07E24007E7A1BB07E34FED17A1B63
:10002000B074037E34FED27A1BB074E77E34FED304
:100030007A1BB074037E34FED57A1BB074E77E342D
:10004000FED67A1BB0E47E34FEB17A1BB07E1BB0C4
:1000500044017A1BB0E47E34FEB27A1BB07E1BB042
:1000600044027A1BB0E47E34FECC7A1BB074687E06
:1000700014FEC87E04007E7A0BB074017A1BB07443
:10008000807E34FEDD7A1BB074017E34FEC07A1BA4
:10009000B022CA79CA59CA39C0D17E37002A0B3476
:1000A0007A37002A7EF3002D4CFF78051202E48097
:1000B0004E7EE3003B4CEE780ABEF001780512025A
:1000C000DD803CBEE001781ABEF00178157E370075
:1000D00016BE37002A38286D337A37002A1201A756
:1000E000801DBEE0027818BEF00178137E3700282C
:1000F000BE37002A38096D337A37002A12000AD039
:10010000D1DA39DA59DA79327EB3003BB4012B7E89
:100110003700140B347A3700147E0400067D138DEB
:10012000107D203E24492200087A270016BE3400A4
:100130000640346D337A37001422B4022A7E370029
:10014000260B347A3700267E0400077D138D107D40
:10015000203E24492200187A270028BE3400074098
:10016000066D337A370026227584017E44041FE42D
:100170007A49B01B4478F97EF8003B7E0400FF7E8C
:100180001402F10B0A405D44681A692000020B0E4C
:100190000B44800A7E0BB07A29B00B240B0C1B4455
:1001A00078F280DF0201E37EB3002C047AB3002CE6
:1001B0007E73002CBE70034005E47AB3002C7EB33E
:1001C000002C7E7003ACB70975002E2E70FF92C80C
:1001D0000975002F2E70FF92C9097500302E70FF2F
:1001E00092CA2275E900A9D7BA75EA0075CAFF75E7
:1001F000C90075960075950012000E1202C8120211
:100200000C12023512025E12028780F2A2A0E433C1
:10021000780C7EB30037B40105E47AB30037A2A0AE
:10022000E433B4010F7EB30037700974017AB30070
:10023000370202EB22A2A1E433780C7EB30038B47B
:100240000105E47AB30038A2A1E433B4010F7EB310
:100250000038700974017AB3003802000322A2A2A8
:10026000E433780C7EB30039B40105E47AB3003985
:10027000A2A2E433B4010F7EB30039700974017A8D
:10028000B300390202B022A2A3E433780C7EB3009B
:100290003AB40105E47AB3003AA2A3E433B4010FFF
:1002A0007EB3003A700974017AB3003A0201082261
:1002B0007EB3003B047AB3003B7E73003BBE70020A
:1002C0002805E47AB3003B22438E805389F0758A77
:1002D000A0758CF6C28DD28CD2A9D2AF22D2C8D250
:1002E000C9D2CA22C2C8C2C9C2CA22E47AB3002D86
:1002F00022000C0008006400C801F402EE03E807C5
:10030000D00002001400000002001602EE000E00F1
:1003100018006400C801F402EE03E807D00BB8002F
:1003200002002600000002002803E80002002A0064
:10033000000001002C000001002D000009002E012A
:100340000000000100000001000100370100010071
:10035000380100010039010001003A010001003BB1
:030360000000009A
:00000001FF
