:0A0000000200C574017AB3002D223E
:10000B0002006E7EB3003BB4012B7E3700140B3421
:10001B007A3700147E0400067D138D107D203E245C
:10002B00492200087A270016BE34000640346D338F
:10003B007A37001422B4022A7E3700260B347A3723
:10004B0000267E0400077D138D107D203E2449225F
:10005B0000187A270028BE34000740066D337A3724
:10006B00002622CA79CA59CA39C0D17E37002A0B59
:10007B00347A37002A7EF3002D4CFF780512023EAE
:10008B00802F7EE3003B4CEE780ABEF00178051220
:10009B000237801DBEE0017818BEF00178137E3761
:1000AB000016BE37002A38096D337A37002A120141
:1000BB0004D0D1DA39DA59DA79327584017E440405
:1000CB001FE47A49B01B4478F97EF8003B7E0400AC
:1000DB00FF7E14024B0B0A405D44681A6920000234
:1000EB000B0E0B44800A7E0BB07A29B00B240B0C41
:1000FB001B4478F280DF0201E47EB3002C047AB358
:10010B00002C7E73002CBE70034005E47AB3002CE8
:10011B007EB3002C7E7003ACB70975002E2E70FFDA
:10012B0092C80975002F2E70FF92C9097500302EE9
:10013B0070FF92CA22A2A0E433780C7EB30037B4CE
:10014B000105E47AB30037A2A0E433B4010F7EB308
:10015B000037700974017AB3003702024522A2A15D
:10016B00E433780C7EB30038B40105E47AB300387D
:10017B00A2A1E433B4010F7EB30038700974017A85
:10018B00B3003802000322A2A2E433780C7EB30042
:10019B0039B40105E47AB30039A2A2E433B4010FF8
:1001AB007EB30039700974017AB3003902020A2256
:1001BB00A2A3E433780C7EB3003AB40105E47AB31E
:1001CB00003AA2A3E433B4010F7EB3003A70097472
:1001DB00017AB3003A02000E2275E900A9D7BA756D
:1001EB00EA0075CAFF75C900759600759500120275
:1001FB00221201401201691201921201BB80F27EA0
:10020B00B3003B047AB3003B7E73003BBE70012806
:10021B0005E47AB3003B22438E805389F0758AA0A4
:10022B00758CF6C28DD28CD2A9D2AF22D2C8D2C9CC
:10023B00D2CA22C2C8C2C9C2CA22E47AB3002D22D2
:10024B00000C0008006400C801F402EE03E807D0BC
:10025B000002001400000002001602EE000E00184F
:10026B00006400C801F402EE03E807D00BB80002EB
:10027B00002600000002002803E80002002A00000C
:10028B000001002C000001002D000009002E0100D0
:10029B0000000100000001000100370100010038DF
:1002AB000100010039010001003A010001003B008F
:0202BB00000041
:00000001FF
